{"abi":[{"type":"constructor","inputs":[{"name":"_uniswapDummyContractAddress","type":"address","internalType":"address"},{"name":"_flashLoanVaultAddress","type":"address","internalType":"address"}],"stateMutability":"nonpayable"},{"type":"receive","stateMutability":"payable"},{"type":"function","name":"initFlashLoan","inputs":[{"name":"destinationChain","type":"uint256","internalType":"uint256"}],"outputs":[],"stateMutability":"nonpayable"},{"type":"function","name":"messenger","inputs":[],"outputs":[{"name":"","type":"address","internalType":"contract IL2ToL2CrossDomainMessenger"}],"stateMutability":"view"},{"type":"function","name":"recieveEthForArbitrageDestinationChain","inputs":[{"name":"sendEthMsgHash","type":"bytes32","internalType":"bytes32"},{"name":"sourceChain","type":"uint256","internalType":"uint256"},{"name":"caller","type":"address","internalType":"address"},{"name":"loanAmount","type":"uint256","internalType":"uint256"},{"name":"flashLoanId","type":"bytes32","internalType":"bytes32"}],"outputs":[],"stateMutability":"nonpayable"},{"type":"function","name":"recieveEthForArbitrageSourceChain","inputs":[{"name":"destinationChain","type":"uint256","internalType":"uint256"},{"name":"caller","type":"address","internalType":"address"},{"name":"laonAmount","type":"uint256","internalType":"uint256"},{"name":"flashLoanId","type":"bytes32","internalType":"bytes32"}],"outputs":[],"stateMutability":"payable"},{"type":"function","name":"recieveEthOnSourceChainFromDestinationChain","inputs":[{"name":"sendEthMsgHash","type":"bytes32","internalType":"bytes32"},{"name":"caller","type":"address","internalType":"address"},{"name":"loanAmount","type":"uint256","internalType":"uint256"},{"name":"flashLoanId","type":"bytes32","internalType":"bytes32"}],"outputs":[],"stateMutability":"nonpayable"},{"type":"function","name":"token","inputs":[],"outputs":[{"name":"","type":"address","internalType":"contract TestUSDToken"}],"stateMutability":"view"},{"type":"event","name":"boughtEth","inputs":[{"name":"flashLoanId","type":"bytes32","indexed":true,"internalType":"bytes32"},{"name":"ethAmount","type":"uint256","indexed":false,"internalType":"uint256"},{"name":"chainid","type":"uint256","indexed":false,"internalType":"uint256"},{"name":"user","type":"address","indexed":true,"internalType":"address"}],"anonymous":false},{"type":"event","name":"flashLoanRecieved","inputs":[{"name":"flashLoanId","type":"bytes32","indexed":true,"internalType":"bytes32"},{"name":"ethAmount","type":"uint256","indexed":false,"internalType":"uint256"},{"name":"chainid","type":"uint256","indexed":false,"internalType":"uint256"},{"name":"user","type":"address","indexed":true,"internalType":"address"}],"anonymous":false},{"type":"event","name":"flashLoanRepayed","inputs":[{"name":"flashLoanId","type":"bytes32","indexed":true,"internalType":"bytes32"},{"name":"ethAmount","type":"uint256","indexed":false,"internalType":"uint256"},{"name":"chainid","type":"uint256","indexed":false,"internalType":"uint256"},{"name":"user","type":"address","indexed":true,"internalType":"address"}],"anonymous":false},{"type":"event","name":"noProfit","inputs":[],"anonymous":false},{"type":"event","name":"sentProfit","inputs":[{"name":"flashLoanId","type":"bytes32","indexed":true,"internalType":"bytes32"},{"name":"ethAmount","type":"uint256","indexed":false,"internalType":"uint256"},{"name":"chainid","type":"uint256","indexed":false,"internalType":"uint256"},{"name":"user","type":"address","indexed":true,"internalType":"address"}],"anonymous":false},{"type":"event","name":"soldEth","inputs":[{"name":"flashLoanId","type":"bytes32","indexed":true,"internalType":"bytes32"},{"name":"ethAmount","type":"uint256","indexed":false,"internalType":"uint256"},{"name":"chainid","type":"uint256","indexed":false,"internalType":"uint256"},{"name":"user","type":"address","indexed":true,"internalType":"address"}],"anonymous":false},{"type":"error","name":"CallerNotL2toL2CrossDomainMessenger","inputs":[]},{"type":"error","name":"InvalidCrossDomainSender","inputs":[]},{"type":"error","name":"RequiredMessageNotSuccessful","inputs":[{"name":"msgHash","type":"bytes32","internalType":"bytes32"}]}],"bytecode":{"object":"0x608060405273420000000000000000000000000000000000002460035f6101000a81548173ffffffffffffffffffffffffffffffffffffffff021916908373ffffffffffffffffffffffffffffffffffffffff16021790555060035f9054906101000a900473ffffffffffffffffffffffffffffffffffffffff1660045f6101000a81548173ffffffffffffffffffffffffffffffffffffffff021916908373ffffffffffffffffffffffffffffffffffffffff1602179055503480156100c4575f5ffd5b50604051611ee5380380611ee583398181016040528101906100e69190610359565b8160015f6101000a81548173ffffffffffffffffffffffffffffffffffffffff021916908373ffffffffffffffffffffffffffffffffffffffff16021790555060015f9054906101000a900473ffffffffffffffffffffffffffffffffffffffff1660025f6101000a81548173ffffffffffffffffffffffffffffffffffffffff021916908373ffffffffffffffffffffffffffffffffffffffff16021790555060025f9054906101000a900473ffffffffffffffffffffffffffffffffffffffff1673ffffffffffffffffffffffffffffffffffffffff166321df0da76040518163ffffffff1660e01b8152600401602060405180830381865afa1580156101f1573d5f5f3e3d5ffd5b505050506040513d601f19601f8201168201806040525081019061021591906103d2565b5f5f6101000a81548173ffffffffffffffffffffffffffffffffffffffff021916908373ffffffffffffffffffffffffffffffffffffffff1602179055508060055f6101000a81548173ffffffffffffffffffffffffffffffffffffffff021916908373ffffffffffffffffffffffffffffffffffffffff16021790555060055f9054906101000a900473ffffffffffffffffffffffffffffffffffffffff1660065f6101000a81548173ffffffffffffffffffffffffffffffffffffffff021916908373ffffffffffffffffffffffffffffffffffffffff16021790555050506103fd565b5f5ffd5b5f73ffffffffffffffffffffffffffffffffffffffff82169050919050565b5f610328826102ff565b9050919050565b6103388161031e565b8114610342575f5ffd5b50565b5f815190506103538161032f565b92915050565b5f5f6040838503121561036f5761036e6102fb565b5b5f61037c85828601610345565b925050602061038d85828601610345565b9150509250929050565b5f6103a18261031e565b9050919050565b6103b181610397565b81146103bb575f5ffd5b50565b5f815190506103cc816103a8565b92915050565b5f602082840312156103e7576103e66102fb565b5b5f6103f4848285016103be565b91505092915050565b611adb8061040a5f395ff3fe608060405260043610610058575f3560e01c806328f58293146100635780633584ddfa1461008b5780633cb747bf146100b35780639191cb7d146100dd578063f78864de14610105578063fc0c546a146101215761005f565b3661005f57005b5f5ffd5b34801561006e575f5ffd5b506100896004803603810190610084919061114b565b61014b565b005b348015610096575f5ffd5b506100b160048036038101906100ac91906111c2565b6103bd565b005b3480156100be575f5ffd5b506100c7610581565b6040516100d49190611248565b60405180910390f35b3480156100e8575f5ffd5b5061010360048036038101906100fe9190611261565b610599565b005b61011f600480360381019061011a91906112c5565b610861565b005b34801561012c575f5ffd5b50610135610a18565b6040516101429190611349565b60405180910390f35b610153610a3c565b61015c85610b2b565b8273ffffffffffffffffffffffffffffffffffffffff16817f512e2d330a931d7c859d83a4f800894d328188adacb84ac49f81a51cecaf3b9c47466040516101a5929190611371565b60405180910390a36101b647610bfb565b8273ffffffffffffffffffffffffffffffffffffffff16817f1fe21ec672fe386a198ac3f6311f71a3edd1c83a50750fed3d17518de5e643d347466040516101ff929190611371565b60405180910390a35f60045f9054906101000a900473ffffffffffffffffffffffffffffffffffffffff1673ffffffffffffffffffffffffffffffffffffffff166364a197f34730886040518463ffffffff1660e01b81526004016102659291906113a7565b60206040518083038185885af1158015610281573d5f5f3e3d5ffd5b50505050506040513d601f19601f820116820180604052508101906102a691906113e2565b905073420000000000000000000000000000000000002373ffffffffffffffffffffffffffffffffffffffff16637056f41f8630639191cb7d60e01b858989896040516024016102f9949392919061141c565b604051602081830303815290604052907bffffffffffffffffffffffffffffffffffffffffffffffffffffffff19166020820180517bffffffffffffffffffffffffffffffffffffffffffffffffffffffff83818316178352505050506040518463ffffffff1660e01b8152600401610374939291906114cf565b6020604051808303815f875af1158015610390573d5f5f3e3d5ffd5b505050506040513d601f19601f820116820180604052508101906103b491906113e2565b50505050505050565b4681036103ff576040517f08c379a00000000000000000000000000000000000000000000000000000000081526004016103f69061158b565b60405180910390fd5b5f60065f9054906101000a900473ffffffffffffffffffffffffffffffffffffffff1673ffffffffffffffffffffffffffffffffffffffff1663a34d9b6e6040518163ffffffff1660e01b81526004016020604051808303815f875af115801561046b573d5f5f3e3d5ffd5b505050506040513d601f19601f8201168201806040525081019061048f91906115bd565b90505f8133436040516020016104a79392919061164d565b6040516020818303038152906040528051906020012090503373ffffffffffffffffffffffffffffffffffffffff16817f87d88a738ca09165c444ae5ef08ddbe1e06124960105ebf8cc54a58da1ce02d08446604051610508929190611371565b60405180910390a33073ffffffffffffffffffffffffffffffffffffffff1663f78864de843385856040518563ffffffff1660e01b815260040161054f9493929190611689565b5f604051808303815f87803b158015610566575f5ffd5b505af1158015610578573d5f5f3e3d5ffd5b50505050505050565b73420000000000000000000000000000000000002381565b6105a1610a3c565b6105aa84610b2b565b5f82476105b79190611702565b90505f8113156107555760055f9054906101000a900473ffffffffffffffffffffffffffffffffffffffff1673ffffffffffffffffffffffffffffffffffffffff16836040516106069061176f565b5f6040518083038185875af1925050503d805f8114610640576040519150601f19603f3d011682016040523d82523d5f602084013e610645565b606091505b5050508373ffffffffffffffffffffffffffffffffffffffff16827fdbe988a66851b7ca333fa0154cee8d34b23a7a4940b594546f781103f41472258546604051610691929190611371565b60405180910390a38373ffffffffffffffffffffffffffffffffffffffff16476040516106bd9061176f565b5f6040518083038185875af1925050503d805f81146106f7576040519150601f19603f3d011682016040523d82523d5f602084013e6106fc565b606091505b5050508373ffffffffffffffffffffffffffffffffffffffff16827fd67deaf82c5b8a98aadb9bb97a2470366263e8ab6d91dc5de25ff6a89150e0068346604051610748929190611371565b60405180910390a361085a565b60055f9054906101000a900473ffffffffffffffffffffffffffffffffffffffff1673ffffffffffffffffffffffffffffffffffffffff164760405161079a9061176f565b5f6040518083038185875af1925050503d805f81146107d4576040519150601f19603f3d011682016040523d82523d5f602084013e6107d9565b606091505b5050508373ffffffffffffffffffffffffffffffffffffffff16827fdbe988a66851b7ca333fa0154cee8d34b23a7a4940b594546f781103f41472258546604051610825929190611371565b60405180910390a37f4e0e76e43a0def5bc3e30db5cb3f387e63aa85cb18019680efe019740350ae3160405160405180910390a15b5050505050565b5f60045f9054906101000a900473ffffffffffffffffffffffffffffffffffffffff1673ffffffffffffffffffffffffffffffffffffffff166364a197f34730886040518463ffffffff1660e01b81526004016108bf9291906113a7565b60206040518083038185885af11580156108db573d5f5f3e3d5ffd5b50505050506040513d601f19601f8201168201806040525081019061090091906113e2565b905073420000000000000000000000000000000000002373ffffffffffffffffffffffffffffffffffffffff16637056f41f86306328f5829360e01b85468a8a8a604051602401610955959493929190611783565b604051602081830303815290604052907bffffffffffffffffffffffffffffffffffffffffffffffffffffffff19166020820180517bffffffffffffffffffffffffffffffffffffffffffffffffffffffff83818316178352505050506040518463ffffffff1660e01b81526004016109d0939291906114cf565b6020604051808303815f875af11580156109ec573d5f5f3e3d5ffd5b505050506040513d601f19601f82011682018060405250810190610a1091906113e2565b505050505050565b5f5f9054906101000a900473ffffffffffffffffffffffffffffffffffffffff1681565b610a44610f22565b3073ffffffffffffffffffffffffffffffffffffffff1673420000000000000000000000000000000000002373ffffffffffffffffffffffffffffffffffffffff166338ffde186040518163ffffffff1660e01b8152600401602060405180830381865afa158015610ab8573d5f5f3e3d5ffd5b505050506040513d601f19601f82011682018060405250810190610adc91906117e8565b73ffffffffffffffffffffffffffffffffffffffff1614610b29576040517fbc22e2aa00000000000000000000000000000000000000000000000000000000815260040160405180910390fd5b565b73420000000000000000000000000000000000002373ffffffffffffffffffffffffffffffffffffffff1663b1b1b209826040518263ffffffff1660e01b8152600401610b789190611813565b602060405180830381865afa158015610b93573d5f5f3e3d5ffd5b505050506040513d601f19601f82011682018060405250810190610bb79190611861565b610bf857806040517f5e38ca86000000000000000000000000000000000000000000000000000000008152600401610bef9190611813565b60405180910390fd5b50565b47811115610c3e576040517f08c379a0000000000000000000000000000000000000000000000000000000008152600401610c35906118fc565b60405180910390fd5b60025f9054906101000a900473ffffffffffffffffffffffffffffffffffffffff1673ffffffffffffffffffffffffffffffffffffffff1663c0fd732a826040518263ffffffff1660e01b81526004015f604051808303818588803b158015610ca5575f5ffd5b505af1158015610cb7573d5f5f3e3d5ffd5b50505050505f5f5f9054906101000a900473ffffffffffffffffffffffffffffffffffffffff1673ffffffffffffffffffffffffffffffffffffffff166370a08231306040518263ffffffff1660e01b8152600401610d16919061191a565b602060405180830381865afa158015610d31573d5f5f3e3d5ffd5b505050506040513d601f19601f82011682018060405250810190610d5591906115bd565b90505f8111610d99576040517f08c379a0000000000000000000000000000000000000000000000000000000008152600401610d90906119a3565b60405180910390fd5b610dd86040518060400160405280600f81526020017f746f6b656e2062616c616e63653a20000000000000000000000000000000000081525082610f9d565b5f5f9054906101000a900473ffffffffffffffffffffffffffffffffffffffff1673ffffffffffffffffffffffffffffffffffffffff1663095ea7b360015f9054906101000a900473ffffffffffffffffffffffffffffffffffffffff16836040518363ffffffff1660e01b8152600401610e549291906113a7565b6020604051808303815f875af1158015610e70573d5f5f3e3d5ffd5b505050506040513d601f19601f82011682018060405250810190610e949190611861565b5060025f9054906101000a900473ffffffffffffffffffffffffffffffffffffffff1673ffffffffffffffffffffffffffffffffffffffff1663a03475fe30836040518363ffffffff1660e01b8152600401610ef19291906119e1565b5f604051808303815f87803b158015610f08575f5ffd5b505af1158015610f1a573d5f5f3e3d5ffd5b505050505050565b73420000000000000000000000000000000000002373ffffffffffffffffffffffffffffffffffffffff163373ffffffffffffffffffffffffffffffffffffffff1614610f9b576040517f1a861d2c00000000000000000000000000000000000000000000000000000000815260040160405180910390fd5b565b6110358282604051602401610fb3929190611a4a565b6040516020818303038152906040527fb60e72cc000000000000000000000000000000000000000000000000000000007bffffffffffffffffffffffffffffffffffffffffffffffffffffffff19166020820180517bffffffffffffffffffffffffffffffffffffffffffffffffffffffff8381831617835250505050611039565b5050565b61105081611048611053611072565b63ffffffff16565b50565b5f6a636f6e736f6c652e6c6f6790505f5f835160208501845afa505050565b61107d819050919050565b611085611a78565b565b5f5ffd5b5f819050919050565b61109d8161108b565b81146110a7575f5ffd5b50565b5f813590506110b881611094565b92915050565b5f819050919050565b6110d0816110be565b81146110da575f5ffd5b50565b5f813590506110eb816110c7565b92915050565b5f73ffffffffffffffffffffffffffffffffffffffff82169050919050565b5f61111a826110f1565b9050919050565b61112a81611110565b8114611134575f5ffd5b50565b5f8135905061114581611121565b92915050565b5f5f5f5f5f60a0868803121561116457611163611087565b5b5f611171888289016110aa565b9550506020611182888289016110dd565b945050604061119388828901611137565b93505060606111a4888289016110dd565b92505060806111b5888289016110aa565b9150509295509295909350565b5f602082840312156111d7576111d6611087565b5b5f6111e4848285016110dd565b91505092915050565b5f819050919050565b5f61121061120b611206846110f1565b6111ed565b6110f1565b9050919050565b5f611221826111f6565b9050919050565b5f61123282611217565b9050919050565b61124281611228565b82525050565b5f60208201905061125b5f830184611239565b92915050565b5f5f5f5f6080858703121561127957611278611087565b5b5f611286878288016110aa565b945050602061129787828801611137565b93505060406112a8878288016110dd565b92505060606112b9878288016110aa565b91505092959194509250565b5f5f5f5f608085870312156112dd576112dc611087565b5b5f6112ea878288016110dd565b94505060206112fb87828801611137565b935050604061130c878288016110dd565b925050606061131d878288016110aa565b91505092959194509250565b5f61133382611217565b9050919050565b61134381611329565b82525050565b5f60208201905061135c5f83018461133a565b92915050565b61136b816110be565b82525050565b5f6040820190506113845f830185611362565b6113916020830184611362565b9392505050565b6113a181611110565b82525050565b5f6040820190506113ba5f830185611398565b6113c76020830184611362565b9392505050565b5f815190506113dc81611094565b92915050565b5f602082840312156113f7576113f6611087565b5b5f611404848285016113ce565b91505092915050565b6114168161108b565b82525050565b5f60808201905061142f5f83018761140d565b61143c6020830186611398565b6114496040830185611362565b611456606083018461140d565b95945050505050565b5f81519050919050565b5f82825260208201905092915050565b8281835e5f83830152505050565b5f601f19601f8301169050919050565b5f6114a18261145f565b6114ab8185611469565b93506114bb818560208601611479565b6114c481611487565b840191505092915050565b5f6060820190506114e25f830186611362565b6114ef6020830185611398565b81810360408301526115018184611497565b9050949350505050565b5f82825260208201905092915050565b7f44657374696e6174696f6e20436861696e2043616e6e6f742042652053616d655f8201527f20417320536f7572636520436861696e00000000000000000000000000000000602082015250565b5f61157560308361150b565b91506115808261151b565b604082019050919050565b5f6020820190508181035f8301526115a281611569565b9050919050565b5f815190506115b7816110c7565b92915050565b5f602082840312156115d2576115d1611087565b5b5f6115df848285016115a9565b91505092915050565b5f819050919050565b6116026115fd826110be565b6115e8565b82525050565b5f8160601b9050919050565b5f61161e82611608565b9050919050565b5f61162f82611614565b9050919050565b61164761164282611110565b611625565b82525050565b5f61165882866115f1565b6020820191506116688285611636565b60148201915061167882846115f1565b602082019150819050949350505050565b5f60808201905061169c5f830187611362565b6116a96020830186611398565b6116b66040830185611362565b6116c3606083018461140d565b95945050505050565b5f819050919050565b7f4e487b71000000000000000000000000000000000000000000000000000000005f52601160045260245ffd5b5f61170c826116cc565b9150611717836116cc565b925082820390508181125f8412168282135f85121516171561173c5761173b6116d5565b5b92915050565b5f81905092915050565b50565b5f61175a5f83611742565b91506117658261174c565b5f82019050919050565b5f6117798261174f565b9150819050919050565b5f60a0820190506117965f83018861140d565b6117a36020830187611362565b6117b06040830186611398565b6117bd6060830185611362565b6117ca608083018461140d565b9695505050505050565b5f815190506117e281611121565b92915050565b5f602082840312156117fd576117fc611087565b5b5f61180a848285016117d4565b91505092915050565b5f6020820190506118265f83018461140d565b92915050565b5f8115159050919050565b6118408161182c565b811461184a575f5ffd5b50565b5f8151905061185b81611837565b92915050565b5f6020828403121561187657611875611087565b5b5f6118838482850161184d565b91505092915050565b7f45544820416d6f756e74203e2042616c616e63652c2043616e27742072756e205f8201527f6172626974726167650000000000000000000000000000000000000000000000602082015250565b5f6118e660298361150b565b91506118f18261188c565b604082019050919050565b5f6020820190508181035f830152611913816118da565b9050919050565b5f60208201905061192d5f830184611398565b92915050565b7f544f4b454e2042616c616e6365206973207a65726f2061667465722073656c6c5f8201527f696e672045544800000000000000000000000000000000000000000000000000602082015250565b5f61198d60278361150b565b915061199882611933565b604082019050919050565b5f6020820190508181035f8301526119ba81611981565b9050919050565b5f6119cb826110f1565b9050919050565b6119db816119c1565b82525050565b5f6040820190506119f45f8301856119d2565b611a016020830184611362565b9392505050565b5f81519050919050565b5f611a1c82611a08565b611a26818561150b565b9350611a36818560208601611479565b611a3f81611487565b840191505092915050565b5f6040820190508181035f830152611a628185611a12565b9050611a716020830184611362565b9392505050565b7f4e487b71000000000000000000000000000000000000000000000000000000005f52605160045260245ffdfea2646970667358221220f419c72e6b8d405c6ce5e9a6ab94e46e1445271c1bcef2d35f9cf90e074dc3f164736f6c634300081c0033","linkReferences":{}},"methodIdentifiers":{"initFlashLoan(uint256)":"3584ddfa","messenger()":"3cb747bf","recieveEthForArbitrageDestinationChain(bytes32,uint256,address,uint256,bytes32)":"28f58293","recieveEthForArbitrageSourceChain(uint256,address,uint256,bytes32)":"f78864de","recieveEthOnSourceChainFromDestinationChain(bytes32,address,uint256,bytes32)":"9191cb7d","token()":"fc0c546a"},"id":37}