{
    "abi": [
        {
            "type": "constructor",
            "inputs": [
                {
                    "name": "_flashBorrowerAddress",
                    "type": "address",
                    "internalType": "address"
                },
                {
                    "name": "_flashLoanVaultAddress",
                    "type": "address",
                    "internalType": "address"
                }
            ],
            "stateMutability": "nonpayable"
        },
        {
            "type": "receive",
            "stateMutability": "payable"
        },
        {
            "type": "function",
            "name": "callFlashLoanHandler",
            "inputs": [
                {
                    "name": "destinationChain",
                    "type": "uint256",
                    "internalType": "uint256"
                }
            ],
            "outputs": [],
            "stateMutability": "nonpayable"
        },
        {
            "type": "function",
            "name": "callFlashLoanHandlerAdvanced",
            "inputs": [
                {
                    "name": "destinationChain",
                    "type": "uint256",
                    "internalType": "uint256"
                },
                {
                    "name": "flashBorrowerAddress",
                    "type": "address",
                    "internalType": "address"
                }
            ],
            "outputs": [],
            "stateMutability": "nonpayable"
        },
        {
            "type": "function",
            "name": "callOnFlashLoan",
            "inputs": [
                {
                    "name": "flashLoanId",
                    "type": "bytes32",
                    "internalType": "bytes32"
                },
                {
                    "name": "caller",
                    "type": "address",
                    "internalType": "address"
                },
                {
                    "name": "flashBorrower",
                    "type": "address",
                    "internalType": "address payable"
                }
            ],
            "outputs": [],
            "stateMutability": "nonpayable"
        },
        {
            "type": "function",
            "name": "initFlashLoan",
            "inputs": [
                {
                    "name": "destinationChain",
                    "type": "uint256",
                    "internalType": "uint256"
                },
                {
                    "name": "flashBorrower",
                    "type": "address",
                    "internalType": "address payable"
                },
                {
                    "name": "caller",
                    "type": "address",
                    "internalType": "address"
                }
            ],
            "outputs": [],
            "stateMutability": "nonpayable"
        },
        {
            "type": "function",
            "name": "messenger",
            "inputs": [],
            "outputs": [
                {
                    "name": "",
                    "type": "address",
                    "internalType": "contract IL2ToL2CrossDomainMessenger"
                }
            ],
            "stateMutability": "view"
        },
        {
            "type": "function",
            "name": "recieveEthForArbitrageDestinationChain",
            "inputs": [
                {
                    "name": "sendEthMsgHash",
                    "type": "bytes32",
                    "internalType": "bytes32"
                },
                {
                    "name": "sourceChain",
                    "type": "uint256",
                    "internalType": "uint256"
                },
                {
                    "name": "caller",
                    "type": "address",
                    "internalType": "address"
                },
                {
                    "name": "loanAmount",
                    "type": "uint256",
                    "internalType": "uint256"
                },
                {
                    "name": "flashLoanId",
                    "type": "bytes32",
                    "internalType": "bytes32"
                },
                {
                    "name": "flashBorrower",
                    "type": "address",
                    "internalType": "address payable"
                }
            ],
            "outputs": [],
            "stateMutability": "nonpayable"
        },
        {
            "type": "function",
            "name": "recieveEthForArbitrageSourceChain",
            "inputs": [
                {
                    "name": "destinationChain",
                    "type": "uint256",
                    "internalType": "uint256"
                },
                {
                    "name": "caller",
                    "type": "address",
                    "internalType": "address"
                },
                {
                    "name": "laonAmount",
                    "type": "uint256",
                    "internalType": "uint256"
                },
                {
                    "name": "flashLoanId",
                    "type": "bytes32",
                    "internalType": "bytes32"
                },
                {
                    "name": "flashBorrower",
                    "type": "address",
                    "internalType": "address payable"
                }
            ],
            "outputs": [],
            "stateMutability": "payable"
        },
        {
            "type": "function",
            "name": "recieveEthOnSourceChainFromDestinationChain",
            "inputs": [
                {
                    "name": "sendEthMsgHash",
                    "type": "bytes32",
                    "internalType": "bytes32"
                },
                {
                    "name": "caller",
                    "type": "address",
                    "internalType": "address"
                },
                {
                    "name": "loanAmount",
                    "type": "uint256",
                    "internalType": "uint256"
                },
                {
                    "name": "flashLoanId",
                    "type": "bytes32",
                    "internalType": "bytes32"
                }
            ],
            "outputs": [],
            "stateMutability": "nonpayable"
        },
        {
            "type": "event",
            "name": "boughtEth",
            "inputs": [
                {
                    "name": "flashLoanId",
                    "type": "bytes32",
                    "indexed": true,
                    "internalType": "bytes32"
                },
                {
                    "name": "ethAmount",
                    "type": "uint256",
                    "indexed": false,
                    "internalType": "uint256"
                },
                {
                    "name": "chainid",
                    "type": "uint256",
                    "indexed": false,
                    "internalType": "uint256"
                },
                {
                    "name": "user",
                    "type": "address",
                    "indexed": true,
                    "internalType": "address"
                }
            ],
            "anonymous": false
        },
        {
            "type": "event",
            "name": "flashLoanRecieved",
            "inputs": [
                {
                    "name": "flashLoanId",
                    "type": "bytes32",
                    "indexed": true,
                    "internalType": "bytes32"
                },
                {
                    "name": "ethAmount",
                    "type": "uint256",
                    "indexed": false,
                    "internalType": "uint256"
                },
                {
                    "name": "chainid",
                    "type": "uint256",
                    "indexed": false,
                    "internalType": "uint256"
                },
                {
                    "name": "user",
                    "type": "address",
                    "indexed": true,
                    "internalType": "address"
                }
            ],
            "anonymous": false
        },
        {
            "type": "event",
            "name": "flashLoanRepayed",
            "inputs": [
                {
                    "name": "flashLoanId",
                    "type": "bytes32",
                    "indexed": true,
                    "internalType": "bytes32"
                },
                {
                    "name": "ethAmount",
                    "type": "uint256",
                    "indexed": false,
                    "internalType": "uint256"
                },
                {
                    "name": "chainid",
                    "type": "uint256",
                    "indexed": false,
                    "internalType": "uint256"
                },
                {
                    "name": "user",
                    "type": "address",
                    "indexed": true,
                    "internalType": "address"
                }
            ],
            "anonymous": false
        },
        {
            "type": "event",
            "name": "noProfit",
            "inputs": [
                {
                    "name": "flashLoanId",
                    "type": "bytes32",
                    "indexed": true,
                    "internalType": "bytes32"
                },
                {
                    "name": "chainid",
                    "type": "uint256",
                    "indexed": false,
                    "internalType": "uint256"
                },
                {
                    "name": "user",
                    "type": "address",
                    "indexed": true,
                    "internalType": "address"
                }
            ],
            "anonymous": false
        },
        {
            "type": "event",
            "name": "sentProfit",
            "inputs": [
                {
                    "name": "flashLoanId",
                    "type": "bytes32",
                    "indexed": true,
                    "internalType": "bytes32"
                },
                {
                    "name": "ethAmount",
                    "type": "uint256",
                    "indexed": false,
                    "internalType": "uint256"
                },
                {
                    "name": "chainid",
                    "type": "uint256",
                    "indexed": false,
                    "internalType": "uint256"
                },
                {
                    "name": "user",
                    "type": "address",
                    "indexed": true,
                    "internalType": "address"
                }
            ],
            "anonymous": false
        },
        {
            "type": "event",
            "name": "soldEth",
            "inputs": [
                {
                    "name": "flashLoanId",
                    "type": "bytes32",
                    "indexed": true,
                    "internalType": "bytes32"
                },
                {
                    "name": "ethAmount",
                    "type": "uint256",
                    "indexed": false,
                    "internalType": "uint256"
                },
                {
                    "name": "chainid",
                    "type": "uint256",
                    "indexed": false,
                    "internalType": "uint256"
                },
                {
                    "name": "user",
                    "type": "address",
                    "indexed": true,
                    "internalType": "address"
                }
            ],
            "anonymous": false
        },
        {
            "type": "error",
            "name": "CallerNotL2toL2CrossDomainMessenger",
            "inputs": []
        },
        {
            "type": "error",
            "name": "InvalidCrossDomainSender",
            "inputs": []
        },
        {
            "type": "error",
            "name": "RequiredMessageNotSuccessful",
            "inputs": [
                {
                    "name": "msgHash",
                    "type": "bytes32",
                    "internalType": "bytes32"
                }
            ]
        }
    ],
    "bytecode": {
        "object": "0x608060405273420000000000000000000000000000000000002460015f6101000a81548173ffffffffffffffffffffffffffffffffffffffff021916908373ffffffffffffffffffffffffffffffffffffffff16021790555060015f9054906101000a900473ffffffffffffffffffffffffffffffffffffffff1660025f6101000a81548173ffffffffffffffffffffffffffffffffffffffff021916908373ffffffffffffffffffffffffffffffffffffffff1602179055503480156100c4575f5ffd5b50604051611ccd380380611ccd83398181016040528101906100e6919061022b565b8060035f6101000a81548173ffffffffffffffffffffffffffffffffffffffff021916908373ffffffffffffffffffffffffffffffffffffffff16021790555060035f9054906101000a900473ffffffffffffffffffffffffffffffffffffffff1660045f6101000a81548173ffffffffffffffffffffffffffffffffffffffff021916908373ffffffffffffffffffffffffffffffffffffffff160217905550815f5f6101000a81548173ffffffffffffffffffffffffffffffffffffffff021916908373ffffffffffffffffffffffffffffffffffffffff1602179055505050610269565b5f5ffd5b5f73ffffffffffffffffffffffffffffffffffffffff82169050919050565b5f6101fa826101d1565b9050919050565b61020a816101f0565b8114610214575f5ffd5b50565b5f8151905061022581610201565b92915050565b5f5f60408385031215610241576102406101cd565b5b5f61024e85828601610217565b925050602061025f85828601610217565b9150509250929050565b611a57806102765f395ff3fe60806040526004361061007e575f3560e01c80638e7616f01161004d5780638e7616f01461011f5780639191cb7d14610147578063cb74bef21461016f578063f59a72991461019757610085565b8063345aa744146100895780633cb747bf146100b157806354287142146100db5780638b46f80b146100f757610085565b3661008557005b5f5ffd5b348015610094575f5ffd5b506100af60048036038101906100aa9190611018565b6101bf565b005b3480156100bc575f5ffd5b506100c5610352565b6040516100d291906110c3565b60405180910390f35b6100f560048036038101906100f0919061110f565b61036a565b005b348015610102575f5ffd5b5061011d60048036038101906101189190611186565b610524565b005b34801561012a575f5ffd5b50610145600480360381019061014091906111d6565b6106ec565b005b348015610152575f5ffd5b5061016d60048036038101906101689190611214565b61075a565b005b34801561017a575f5ffd5b5061019560048036038101906101909190611278565b610a45565b005b3480156101a2575f5ffd5b506101bd60048036038101906101b89190611301565b610ad0565b005b5f4790508173ffffffffffffffffffffffffffffffffffffffff1663776678808283306040518463ffffffff1660e01b81526004016101ff92919061134a565b5f604051808303818588803b158015610216575f5ffd5b505af193505050508015610228575060015b610267576040517f08c379a000000000000000000000000000000000000000000000000000000000815260040161025e906113cb565b60405180910390fd5b8273ffffffffffffffffffffffffffffffffffffffff16847f512e2d330a931d7c859d83a4f800894d328188adacb84ac49f81a51cecaf3b9c47466040516102b09291906113e9565b60405180910390a3804710156102fb576040517f08c379a00000000000000000000000000000000000000000000000000000000081526004016102f290611480565b60405180910390fd5b8273ffffffffffffffffffffffffffffffffffffffff16847f1fe21ec672fe386a198ac3f6311f71a3edd1c83a50750fed3d17518de5e643d347466040516103449291906113e9565b60405180910390a350505050565b73420000000000000000000000000000000000002381565b5f60025f9054906101000a900473ffffffffffffffffffffffffffffffffffffffff1673ffffffffffffffffffffffffffffffffffffffff166364a197f34730896040518463ffffffff1660e01b81526004016103c892919061149e565b60206040518083038185885af11580156103e4573d5f5f3e3d5ffd5b50505050506040513d601f19601f8201168201806040525081019061040991906114d9565b905073420000000000000000000000000000000000002373ffffffffffffffffffffffffffffffffffffffff16637056f41f873063cb74bef260e01b85468b8b8b8b60405160240161046096959493929190611522565b604051602081830303815290604052907bffffffffffffffffffffffffffffffffffffffffffffffffffffffff19166020820180517bffffffffffffffffffffffffffffffffffffffffffffffffffffffff83818316178352505050506040518463ffffffff1660e01b81526004016104db939291906115f1565b6020604051808303815f875af11580156104f7573d5f5f3e3d5ffd5b505050506040513d601f19601f8201168201806040525081019061051b91906114d9565b50505050505050565b468303610566576040517f08c379a000000000000000000000000000000000000000000000000000000000815260040161055d9061169d565b60405180910390fd5b5f60045f9054906101000a900473ffffffffffffffffffffffffffffffffffffffff1673ffffffffffffffffffffffffffffffffffffffff1663a34d9b6e6040518163ffffffff1660e01b81526004016020604051808303815f875af11580156105d2573d5f5f3e3d5ffd5b505050506040513d601f19601f820116820180604052508101906105f691906116cf565b90505f81834360405160200161060e9392919061175f565b6040516020818303038152906040528051906020012090508273ffffffffffffffffffffffffffffffffffffffff16817f87d88a738ca09165c444ae5ef08ddbe1e06124960105ebf8cc54a58da1ce02d0844660405161066f9291906113e9565b60405180910390a33073ffffffffffffffffffffffffffffffffffffffff16635428714286858585896040518663ffffffff1660e01b81526004016106b895949392919061179b565b5f604051808303815f87803b1580156106cf575f5ffd5b505af11580156106e1573d5f5f3e3d5ffd5b505050505050505050565b3073ffffffffffffffffffffffffffffffffffffffff16638b46f80b8383336040518463ffffffff1660e01b8152600401610729939291906117ec565b5f604051808303815f87803b158015610740575f5ffd5b505af1158015610752573d5f5f3e3d5ffd5b505050505050565b610762610b5d565b61076b84610c4c565b5f82476107789190611857565b90505f8113156109165760035f9054906101000a900473ffffffffffffffffffffffffffffffffffffffff1673ffffffffffffffffffffffffffffffffffffffff16836040516107c7906118c4565b5f6040518083038185875af1925050503d805f8114610801576040519150601f19603f3d011682016040523d82523d5f602084013e610806565b606091505b5050508373ffffffffffffffffffffffffffffffffffffffff16827fdbe988a66851b7ca333fa0154cee8d34b23a7a4940b594546f781103f414722585466040516108529291906113e9565b60405180910390a38373ffffffffffffffffffffffffffffffffffffffff164760405161087e906118c4565b5f6040518083038185875af1925050503d805f81146108b8576040519150601f19603f3d011682016040523d82523d5f602084013e6108bd565b606091505b5050508373ffffffffffffffffffffffffffffffffffffffff16827fd67deaf82c5b8a98aadb9bb97a2470366263e8ab6d91dc5de25ff6a89150e00683466040516109099291906113e9565b60405180910390a3610a3e565b60035f9054906101000a900473ffffffffffffffffffffffffffffffffffffffff1673ffffffffffffffffffffffffffffffffffffffff164760405161095b906118c4565b5f6040518083038185875af1925050503d805f8114610995576040519150601f19603f3d011682016040523d82523d5f602084013e61099a565b606091505b5050508373ffffffffffffffffffffffffffffffffffffffff16827fdbe988a66851b7ca333fa0154cee8d34b23a7a4940b594546f781103f414722585466040516109e69291906113e9565b60405180910390a38373ffffffffffffffffffffffffffffffffffffffff16827f2ec2c4fcdf3e0f680caa141ee4dfa020b3bed8ec4f7ad013a4fce686176982bf46604051610a3591906118d8565b60405180910390a35b5050505050565b610a4d610b5d565b610a5686610c4c565b3073ffffffffffffffffffffffffffffffffffffffff1663345aa7448386846040518463ffffffff1660e01b8152600401610a93939291906118f1565b5f604051808303815f87803b158015610aaa575f5ffd5b505af1925050508015610abb575060015b50610ac885858585610d1c565b505050505050565b3073ffffffffffffffffffffffffffffffffffffffff16638b46f80b825f5f9054906101000a900473ffffffffffffffffffffffffffffffffffffffff16336040518463ffffffff1660e01b8152600401610b2d939291906117ec565b5f604051808303815f87803b158015610b44575f5ffd5b505af1158015610b56573d5f5f3e3d5ffd5b5050505050565b610b65610ed1565b3073ffffffffffffffffffffffffffffffffffffffff1673420000000000000000000000000000000000002373ffffffffffffffffffffffffffffffffffffffff166338ffde186040518163ffffffff1660e01b8152600401602060405180830381865afa158015610bd9573d5f5f3e3d5ffd5b505050506040513d601f19601f82011682018060405250810190610bfd919061193a565b73ffffffffffffffffffffffffffffffffffffffff1614610c4a576040517fbc22e2aa00000000000000000000000000000000000000000000000000000000815260040160405180910390fd5b565b73420000000000000000000000000000000000002373ffffffffffffffffffffffffffffffffffffffff1663b1b1b209826040518263ffffffff1660e01b8152600401610c999190611965565b602060405180830381865afa158015610cb4573d5f5f3e3d5ffd5b505050506040513d601f19601f82011682018060405250810190610cd891906119b3565b610d1957806040517f5e38ca86000000000000000000000000000000000000000000000000000000008152600401610d109190611965565b60405180910390fd5b50565b5f60025f9054906101000a900473ffffffffffffffffffffffffffffffffffffffff1673ffffffffffffffffffffffffffffffffffffffff166364a197f34730886040518463ffffffff1660e01b8152600401610d7a92919061149e565b60206040518083038185885af1158015610d96573d5f5f3e3d5ffd5b50505050506040513d601f19601f82011682018060405250810190610dbb91906114d9565b905073420000000000000000000000000000000000002373ffffffffffffffffffffffffffffffffffffffff16637056f41f8630639191cb7d60e01b85898989604051602401610e0e94939291906119de565b604051602081830303815290604052907bffffffffffffffffffffffffffffffffffffffffffffffffffffffff19166020820180517bffffffffffffffffffffffffffffffffffffffffffffffffffffffff83818316178352505050506040518463ffffffff1660e01b8152600401610e89939291906115f1565b6020604051808303815f875af1158015610ea5573d5f5f3e3d5ffd5b505050506040513d601f19601f82011682018060405250810190610ec991906114d9565b505050505050565b73420000000000000000000000000000000000002373ffffffffffffffffffffffffffffffffffffffff163373ffffffffffffffffffffffffffffffffffffffff1614610f4a576040517f1a861d2c00000000000000000000000000000000000000000000000000000000815260040160405180910390fd5b565b5f5ffd5b5f819050919050565b610f6281610f50565b8114610f6c575f5ffd5b50565b5f81359050610f7d81610f59565b92915050565b5f73ffffffffffffffffffffffffffffffffffffffff82169050919050565b5f610fac82610f83565b9050919050565b610fbc81610fa2565b8114610fc6575f5ffd5b50565b5f81359050610fd781610fb3565b92915050565b5f610fe782610f83565b9050919050565b610ff781610fdd565b8114611001575f5ffd5b50565b5f8135905061101281610fee565b92915050565b5f5f5f6060848603121561102f5761102e610f4c565b5b5f61103c86828701610f6f565b935050602061104d86828701610fc9565b925050604061105e86828701611004565b9150509250925092565b5f819050919050565b5f61108b61108661108184610f83565b611068565b610f83565b9050919050565b5f61109c82611071565b9050919050565b5f6110ad82611092565b9050919050565b6110bd816110a3565b82525050565b5f6020820190506110d65f8301846110b4565b92915050565b5f819050919050565b6110ee816110dc565b81146110f8575f5ffd5b50565b5f81359050611109816110e5565b92915050565b5f5f5f5f5f60a0868803121561112857611127610f4c565b5b5f611135888289016110fb565b955050602061114688828901610fc9565b9450506040611157888289016110fb565b935050606061116888828901610f6f565b925050608061117988828901611004565b9150509295509295909350565b5f5f5f6060848603121561119d5761119c610f4c565b5b5f6111aa868287016110fb565b93505060206111bb86828701611004565b92505060406111cc86828701610fc9565b9150509250925092565b5f5f604083850312156111ec576111eb610f4c565b5b5f6111f9858286016110fb565b925050602061120a85828601610fc9565b9150509250929050565b5f5f5f5f6080858703121561122c5761122b610f4c565b5b5f61123987828801610f6f565b945050602061124a87828801610fc9565b935050604061125b878288016110fb565b925050606061126c87828801610f6f565b91505092959194509250565b5f5f5f5f5f5f60c0878903121561129257611291610f4c565b5b5f61129f89828a01610f6f565b96505060206112b089828a016110fb565b95505060406112c189828a01610fc9565b94505060606112d289828a016110fb565b93505060806112e389828a01610f6f565b92505060a06112f489828a01611004565b9150509295509295509295565b5f6020828403121561131657611315610f4c565b5b5f611323848285016110fb565b91505092915050565b611335816110dc565b82525050565b61134481610fa2565b82525050565b5f60408201905061135d5f83018561132c565b61136a602083018461133b565b9392505050565b5f82825260208201905092915050565b7f6f6e466c6173684c6f616e2046756e6374696f6e204661696c656400000000005f82015250565b5f6113b5601b83611371565b91506113c082611381565b602082019050919050565b5f6020820190508181035f8301526113e2816113a9565b9050919050565b5f6040820190506113fc5f83018561132c565b611409602083018461132c565b9392505050565b7f53756666696369656e742046756e64732057657265204e6f742052657475726e5f8201527f6564000000000000000000000000000000000000000000000000000000000000602082015250565b5f61146a602283611371565b915061147582611410565b604082019050919050565b5f6020820190508181035f8301526114978161145e565b9050919050565b5f6040820190506114b15f83018561133b565b6114be602083018461132c565b9392505050565b5f815190506114d381610f59565b92915050565b5f602082840312156114ee576114ed610f4c565b5b5f6114fb848285016114c5565b91505092915050565b61150d81610f50565b82525050565b61151c81610fdd565b82525050565b5f60c0820190506115355f830189611504565b611542602083018861132c565b61154f604083018761133b565b61155c606083018661132c565b6115696080830185611504565b61157660a0830184611513565b979650505050505050565b5f81519050919050565b5f82825260208201905092915050565b8281835e5f83830152505050565b5f601f19601f8301169050919050565b5f6115c382611581565b6115cd818561158b565b93506115dd81856020860161159b565b6115e6816115a9565b840191505092915050565b5f6060820190506116045f83018661132c565b611611602083018561133b565b818103604083015261162381846115b9565b9050949350505050565b7f44657374696e6174696f6e20436861696e2043616e6e6f742042652053616d655f8201527f20417320536f7572636520436861696e00000000000000000000000000000000602082015250565b5f611687603083611371565b91506116928261162d565b604082019050919050565b5f6020820190508181035f8301526116b48161167b565b9050919050565b5f815190506116c9816110e5565b92915050565b5f602082840312156116e4576116e3610f4c565b5b5f6116f1848285016116bb565b91505092915050565b5f819050919050565b61171461170f826110dc565b6116fa565b82525050565b5f8160601b9050919050565b5f6117308261171a565b9050919050565b5f61174182611726565b9050919050565b61175961175482610fa2565b611737565b82525050565b5f61176a8286611703565b60208201915061177a8285611748565b60148201915061178a8284611703565b602082019150819050949350505050565b5f60a0820190506117ae5f83018861132c565b6117bb602083018761133b565b6117c8604083018661132c565b6117d56060830185611504565b6117e26080830184611513565b9695505050505050565b5f6060820190506117ff5f83018661132c565b61180c6020830185611513565b611819604083018461133b565b949350505050565b5f819050919050565b7f4e487b71000000000000000000000000000000000000000000000000000000005f52601160045260245ffd5b5f61186182611821565b915061186c83611821565b925082820390508181125f8412168282135f8512151617156118915761189061182a565b5b92915050565b5f81905092915050565b50565b5f6118af5f83611897565b91506118ba826118a1565b5f82019050919050565b5f6118ce826118a4565b9150819050919050565b5f6020820190506118eb5f83018461132c565b92915050565b5f6060820190506119045f830186611504565b611911602083018561133b565b61191e6040830184611513565b949350505050565b5f8151905061193481610fb3565b92915050565b5f6020828403121561194f5761194e610f4c565b5b5f61195c84828501611926565b91505092915050565b5f6020820190506119785f830184611504565b92915050565b5f8115159050919050565b6119928161197e565b811461199c575f5ffd5b50565b5f815190506119ad81611989565b92915050565b5f602082840312156119c8576119c7610f4c565b5b5f6119d58482850161199f565b91505092915050565b5f6080820190506119f15f830187611504565b6119fe602083018661133b565b611a0b604083018561132c565b611a186060830184611504565b9594505050505056fea2646970667358221220439b8d6b99a74b07713eac1876552fd5c9396d947e166b33593f974b30e831d664736f6c634300081c0033",
        "linkReferences": {}
    },
    "methodIdentifiers": {
        "callFlashLoanHandler(uint256)": "f59a7299",
        "callFlashLoanHandlerAdvanced(uint256,address)": "8e7616f0",
        "callOnFlashLoan(bytes32,address,address)": "345aa744",
        "initFlashLoan(uint256,address,address)": "8b46f80b",
        "messenger()": "3cb747bf",
        "recieveEthForArbitrageDestinationChain(bytes32,uint256,address,uint256,bytes32,address)": "cb74bef2",
        "recieveEthForArbitrageSourceChain(uint256,address,uint256,bytes32,address)": "54287142",
        "recieveEthOnSourceChainFromDestinationChain(bytes32,address,uint256,bytes32)": "9191cb7d"
    },
    "id": 38
}