{"abi":[{"type":"constructor","inputs":[{"name":"_uniswapDummyContractAddress","type":"address","internalType":"address"},{"name":"_flashLoanVaultAddress","type":"address","internalType":"address"}],"stateMutability":"nonpayable"},{"type":"receive","stateMutability":"payable"},{"type":"function","name":"initFlashLoan","inputs":[{"name":"destinationChain","type":"uint256","internalType":"uint256"}],"outputs":[],"stateMutability":"nonpayable"},{"type":"function","name":"messenger","inputs":[],"outputs":[{"name":"","type":"address","internalType":"contract IL2ToL2CrossDomainMessenger"}],"stateMutability":"view"},{"type":"function","name":"recieveEthForArbitrage","inputs":[],"outputs":[],"stateMutability":"payable"},{"type":"function","name":"recieveEthForArbitrageDestinationChain","inputs":[{"name":"sendEthMsgHash","type":"bytes32","internalType":"bytes32"},{"name":"sourceChain","type":"uint256","internalType":"uint256"},{"name":"caller","type":"address","internalType":"address"},{"name":"loanAmount","type":"uint256","internalType":"uint256"}],"outputs":[],"stateMutability":"nonpayable"},{"type":"function","name":"recieveEthForArbitrageSourceChain","inputs":[{"name":"destinationChain","type":"uint256","internalType":"uint256"},{"name":"caller","type":"address","internalType":"address"},{"name":"laonAmount","type":"uint256","internalType":"uint256"}],"outputs":[],"stateMutability":"payable"},{"type":"function","name":"recieveEthOnSourceChainFromDestinationChain","inputs":[{"name":"sendEthMsgHash","type":"bytes32","internalType":"bytes32"},{"name":"caller","type":"address","internalType":"address"},{"name":"loanAmount","type":"uint256","internalType":"uint256"}],"outputs":[],"stateMutability":"nonpayable"},{"type":"function","name":"token","inputs":[],"outputs":[{"name":"","type":"address","internalType":"contract TestUSDToken"}],"stateMutability":"view"},{"type":"event","name":"boughtEth","inputs":[{"name":"ethAmount","type":"uint256","indexed":false,"internalType":"uint256"},{"name":"chainid","type":"uint256","indexed":false,"internalType":"uint256"}],"anonymous":false},{"type":"event","name":"flashLoanRecieved","inputs":[{"name":"ethAmount","type":"uint256","indexed":false,"internalType":"uint256"},{"name":"chainid","type":"uint256","indexed":false,"internalType":"uint256"}],"anonymous":false},{"type":"event","name":"flashLoanRepayed","inputs":[{"name":"ethAmount","type":"uint256","indexed":false,"internalType":"uint256"},{"name":"chainid","type":"uint256","indexed":false,"internalType":"uint256"}],"anonymous":false},{"type":"event","name":"helloWorld","inputs":[{"name":"ethAmount","type":"uint256","indexed":false,"internalType":"uint256"}],"anonymous":false},{"type":"event","name":"noProfit","inputs":[],"anonymous":false},{"type":"event","name":"sentProfit","inputs":[{"name":"ethAmount","type":"uint256","indexed":false,"internalType":"uint256"},{"name":"chainid","type":"uint256","indexed":false,"internalType":"uint256"}],"anonymous":false},{"type":"event","name":"soldEth","inputs":[{"name":"ethAmount","type":"uint256","indexed":false,"internalType":"uint256"},{"name":"chainid","type":"uint256","indexed":false,"internalType":"uint256"}],"anonymous":false},{"type":"error","name":"CallerNotL2toL2CrossDomainMessenger","inputs":[]},{"type":"error","name":"InvalidCrossDomainSender","inputs":[]},{"type":"error","name":"RequiredMessageNotSuccessful","inputs":[{"name":"msgHash","type":"bytes32","internalType":"bytes32"}]}],"bytecode":{"object":"0x608060405273420000000000000000000000000000000000002460035f6101000a81548173ffffffffffffffffffffffffffffffffffffffff021916908373ffffffffffffffffffffffffffffffffffffffff16021790555060035f9054906101000a900473ffffffffffffffffffffffffffffffffffffffff1660045f6101000a81548173ffffffffffffffffffffffffffffffffffffffff021916908373ffffffffffffffffffffffffffffffffffffffff1602179055503480156100c4575f5ffd5b50604051611d97380380611d9783398181016040528101906100e69190610359565b8160015f6101000a81548173ffffffffffffffffffffffffffffffffffffffff021916908373ffffffffffffffffffffffffffffffffffffffff16021790555060015f9054906101000a900473ffffffffffffffffffffffffffffffffffffffff1660025f6101000a81548173ffffffffffffffffffffffffffffffffffffffff021916908373ffffffffffffffffffffffffffffffffffffffff16021790555060025f9054906101000a900473ffffffffffffffffffffffffffffffffffffffff1673ffffffffffffffffffffffffffffffffffffffff166321df0da76040518163ffffffff1660e01b8152600401602060405180830381865afa1580156101f1573d5f5f3e3d5ffd5b505050506040513d601f19601f8201168201806040525081019061021591906103d2565b5f5f6101000a81548173ffffffffffffffffffffffffffffffffffffffff021916908373ffffffffffffffffffffffffffffffffffffffff1602179055508060055f6101000a81548173ffffffffffffffffffffffffffffffffffffffff021916908373ffffffffffffffffffffffffffffffffffffffff16021790555060055f9054906101000a900473ffffffffffffffffffffffffffffffffffffffff1660065f6101000a81548173ffffffffffffffffffffffffffffffffffffffff021916908373ffffffffffffffffffffffffffffffffffffffff16021790555050506103fd565b5f5ffd5b5f73ffffffffffffffffffffffffffffffffffffffff82169050919050565b5f610328826102ff565b9050919050565b6103388161031e565b8114610342575f5ffd5b50565b5f815190506103538161032f565b92915050565b5f5f6040838503121561036f5761036e6102fb565b5b5f61037c85828601610345565b925050602061038d85828601610345565b9150509250929050565b5f6103a18261031e565b9050919050565b6103b181610397565b81146103bb575f5ffd5b50565b5f815190506103cc816103a8565b92915050565b5f602082840312156103e7576103e66102fb565b5b5f6103f4848285016103be565b91505092915050565b61198d8061040a5f395ff3fe608060405260043610610073575f3560e01c80639406f8fd1161004d5780639406f8fd146100ec578063a2d9133d14610114578063f4c4c9511461013c578063fc0c546a146101465761007a565b80633584ddfa1461007e5780633cb747bf146100a6578063533cd2e8146100d05761007a565b3661007a57005b5f5ffd5b348015610089575f5ffd5b506100a4600480360381019061009f919061105d565b610170565b005b3480156100b1575f5ffd5b506100ba610322565b6040516100c79190611102565b60405180910390f35b6100ea60048036038101906100e59190611156565b61033a565b005b3480156100f7575f5ffd5b50610112600480360381019061010d91906111d9565b6104ee565b005b34801561011f575f5ffd5b5061013a6004803603810190610135919061123d565b6106bb565b005b61014461093a565b005b348015610151575f5ffd5b5061015a610945565b60405161016791906112ad565b60405180910390f35b4681036101b2576040517f08c379a00000000000000000000000000000000000000000000000000000000081526004016101a990611346565b60405180910390fd5b5f60065f9054906101000a900473ffffffffffffffffffffffffffffffffffffffff1673ffffffffffffffffffffffffffffffffffffffff1663a34d9b6e6040518163ffffffff1660e01b81526004016020604051808303815f875af115801561021e573d5f5f3e3d5ffd5b505050506040513d601f19601f820116820180604052508101906102429190611378565b90507f5d3a9c29b1881ea9cedf2d6ae38eef84ecbc54a21d096c548960995dd8b9e8f18160405161027391906113b2565b60405180910390a17f99f9ae076b3ea5c28f9e10357735ec55b1f7d940fbc7fc7b0e98923b7d8c52a981466040516102ac9291906113cb565b60405180910390a13073ffffffffffffffffffffffffffffffffffffffff1663533cd2e88333846040518463ffffffff1660e01b81526004016102f193929190611401565b5f604051808303815f87803b158015610308575f5ffd5b505af115801561031a573d5f5f3e3d5ffd5b505050505050565b73420000000000000000000000000000000000002381565b5f60045f9054906101000a900473ffffffffffffffffffffffffffffffffffffffff1673ffffffffffffffffffffffffffffffffffffffff166364a197f34730876040518463ffffffff1660e01b8152600401610398929190611436565b60206040518083038185885af11580156103b4573d5f5f3e3d5ffd5b50505050506040513d601f19601f820116820180604052508101906103d99190611471565b905073420000000000000000000000000000000000002373ffffffffffffffffffffffffffffffffffffffff16637056f41f8530639406f8fd60e01b8546898960405160240161042c94939291906114ab565b604051602081830303815290604052907bffffffffffffffffffffffffffffffffffffffffffffffffffffffff19166020820180517bffffffffffffffffffffffffffffffffffffffffffffffffffffffff83818316178352505050506040518463ffffffff1660e01b81526004016104a79392919061155e565b6020604051808303815f875af11580156104c3573d5f5f3e3d5ffd5b505050506040513d601f19601f820116820180604052508101906104e79190611471565b5050505050565b6104f6610969565b6104ff84610a58565b61050847610b28565b5f60045f9054906101000a900473ffffffffffffffffffffffffffffffffffffffff1673ffffffffffffffffffffffffffffffffffffffff166364a197f34730876040518463ffffffff1660e01b8152600401610566929190611436565b60206040518083038185885af1158015610582573d5f5f3e3d5ffd5b50505050506040513d601f19601f820116820180604052508101906105a79190611471565b905073420000000000000000000000000000000000002373ffffffffffffffffffffffffffffffffffffffff16637056f41f853063a2d9133d60e01b8588886040516024016105f89392919061159a565b604051602081830303815290604052907bffffffffffffffffffffffffffffffffffffffffffffffffffffffff19166020820180517bffffffffffffffffffffffffffffffffffffffffffffffffffffffff83818316178352505050506040518463ffffffff1660e01b81526004016106739392919061155e565b6020604051808303815f875af115801561068f573d5f5f3e3d5ffd5b505050506040513d601f19601f820116820180604052508101906106b39190611471565b505050505050565b6106c3610969565b6106cc83610a58565b5f81476106d99190611605565b90505f8113156108475760055f9054906101000a900473ffffffffffffffffffffffffffffffffffffffff1673ffffffffffffffffffffffffffffffffffffffff168260405161072890611672565b5f6040518083038185875af1925050503d805f8114610762576040519150601f19603f3d011682016040523d82523d5f602084013e610767565b606091505b5050507fcebca22daa99563fc9438244b438969d2a793bff32834df0d574fd0777557451824660405161079b9291906113cb565b60405180910390a18273ffffffffffffffffffffffffffffffffffffffff16476040516107c790611672565b5f6040518083038185875af1925050503d805f8114610801576040519150601f19603f3d011682016040523d82523d5f602084013e610806565b606091505b5050507fdf34191c76caf62822d572bb83d71bb9eb89ce3e1cb64b9cb22eef1d967f6420814660405161083a9291906113cb565b60405180910390a1610934565b60055f9054906101000a900473ffffffffffffffffffffffffffffffffffffffff1673ffffffffffffffffffffffffffffffffffffffff164760405161088c90611672565b5f6040518083038185875af1925050503d805f81146108c6576040519150601f19603f3d011682016040523d82523d5f602084013e6108cb565b606091505b5050507fcebca22daa99563fc9438244b438969d2a793bff32834df0d574fd077755745182466040516108ff9291906113cb565b60405180910390a17f4e0e76e43a0def5bc3e30db5cb3f387e63aa85cb18019680efe019740350ae3160405160405180910390a15b50505050565b61094334610b28565b565b5f5f9054906101000a900473ffffffffffffffffffffffffffffffffffffffff1681565b610971610ec1565b3073ffffffffffffffffffffffffffffffffffffffff1673420000000000000000000000000000000000002373ffffffffffffffffffffffffffffffffffffffff166338ffde186040518163ffffffff1660e01b8152600401602060405180830381865afa1580156109e5573d5f5f3e3d5ffd5b505050506040513d601f19601f82011682018060405250810190610a09919061169a565b73ffffffffffffffffffffffffffffffffffffffff1614610a56576040517fbc22e2aa00000000000000000000000000000000000000000000000000000000815260040160405180910390fd5b565b73420000000000000000000000000000000000002373ffffffffffffffffffffffffffffffffffffffff1663b1b1b209826040518263ffffffff1660e01b8152600401610aa591906116c5565b602060405180830381865afa158015610ac0573d5f5f3e3d5ffd5b505050506040513d601f19601f82011682018060405250810190610ae49190611713565b610b2557806040517f5e38ca86000000000000000000000000000000000000000000000000000000008152600401610b1c91906116c5565b60405180910390fd5b50565b47811115610b6b576040517f08c379a0000000000000000000000000000000000000000000000000000000008152600401610b62906117ae565b60405180910390fd5b60025f9054906101000a900473ffffffffffffffffffffffffffffffffffffffff1673ffffffffffffffffffffffffffffffffffffffff1663c0fd732a826040518263ffffffff1660e01b81526004015f604051808303818588803b158015610bd2575f5ffd5b505af1158015610be4573d5f5f3e3d5ffd5b50505050507f332fb5d6668b0af8ca82c55372afe70e0e66dbde4bee2bde50a5772e6d3c4cb48146604051610c1a9291906113cb565b60405180910390a15f5f5f9054906101000a900473ffffffffffffffffffffffffffffffffffffffff1673ffffffffffffffffffffffffffffffffffffffff166370a08231306040518263ffffffff1660e01b8152600401610c7c91906117cc565b602060405180830381865afa158015610c97573d5f5f3e3d5ffd5b505050506040513d601f19601f82011682018060405250810190610cbb9190611378565b90505f8111610cff576040517f08c379a0000000000000000000000000000000000000000000000000000000008152600401610cf690611855565b60405180910390fd5b610d3e6040518060400160405280600f81526020017f746f6b656e2062616c616e63653a20000000000000000000000000000000000081525082610f3c565b5f5f9054906101000a900473ffffffffffffffffffffffffffffffffffffffff1673ffffffffffffffffffffffffffffffffffffffff1663095ea7b360015f9054906101000a900473ffffffffffffffffffffffffffffffffffffffff16836040518363ffffffff1660e01b8152600401610dba929190611436565b6020604051808303815f875af1158015610dd6573d5f5f3e3d5ffd5b505050506040513d601f19601f82011682018060405250810190610dfa9190611713565b5060025f9054906101000a900473ffffffffffffffffffffffffffffffffffffffff1673ffffffffffffffffffffffffffffffffffffffff1663a03475fe30836040518363ffffffff1660e01b8152600401610e57929190611893565b5f604051808303815f87803b158015610e6e575f5ffd5b505af1158015610e80573d5f5f3e3d5ffd5b505050507f22dff0b1b1c4872f7689e852cd57ff51f3212f7221508c88e0f297c95c6120f64746604051610eb59291906113cb565b60405180910390a15050565b73420000000000000000000000000000000000002373ffffffffffffffffffffffffffffffffffffffff163373ffffffffffffffffffffffffffffffffffffffff1614610f3a576040517f1a861d2c00000000000000000000000000000000000000000000000000000000815260040160405180910390fd5b565b610fd48282604051602401610f529291906118fc565b6040516020818303038152906040527fb60e72cc000000000000000000000000000000000000000000000000000000007bffffffffffffffffffffffffffffffffffffffffffffffffffffffff19166020820180517bffffffffffffffffffffffffffffffffffffffffffffffffffffffff8381831617835250505050610fd8565b5050565b610fef81610fe7610ff2611011565b63ffffffff16565b50565b5f6a636f6e736f6c652e6c6f6790505f5f835160208501845afa505050565b61101c819050919050565b61102461192a565b565b5f5ffd5b5f819050919050565b61103c8161102a565b8114611046575f5ffd5b50565b5f8135905061105781611033565b92915050565b5f6020828403121561107257611071611026565b5b5f61107f84828501611049565b91505092915050565b5f73ffffffffffffffffffffffffffffffffffffffff82169050919050565b5f819050919050565b5f6110ca6110c56110c084611088565b6110a7565b611088565b9050919050565b5f6110db826110b0565b9050919050565b5f6110ec826110d1565b9050919050565b6110fc816110e2565b82525050565b5f6020820190506111155f8301846110f3565b92915050565b5f61112582611088565b9050919050565b6111358161111b565b811461113f575f5ffd5b50565b5f813590506111508161112c565b92915050565b5f5f5f6060848603121561116d5761116c611026565b5b5f61117a86828701611049565b935050602061118b86828701611142565b925050604061119c86828701611049565b9150509250925092565b5f819050919050565b6111b8816111a6565b81146111c2575f5ffd5b50565b5f813590506111d3816111af565b92915050565b5f5f5f5f608085870312156111f1576111f0611026565b5b5f6111fe878288016111c5565b945050602061120f87828801611049565b935050604061122087828801611142565b925050606061123187828801611049565b91505092959194509250565b5f5f5f6060848603121561125457611253611026565b5b5f611261868287016111c5565b935050602061127286828701611142565b925050604061128386828701611049565b9150509250925092565b5f611297826110d1565b9050919050565b6112a78161128d565b82525050565b5f6020820190506112c05f83018461129e565b92915050565b5f82825260208201905092915050565b7f44657374696e6174696f6e20436861696e2043616e6e6f742042652053616d655f8201527f20417320536f7572636520436861696e00000000000000000000000000000000602082015250565b5f6113306030836112c6565b915061133b826112d6565b604082019050919050565b5f6020820190508181035f83015261135d81611324565b9050919050565b5f8151905061137281611033565b92915050565b5f6020828403121561138d5761138c611026565b5b5f61139a84828501611364565b91505092915050565b6113ac8161102a565b82525050565b5f6020820190506113c55f8301846113a3565b92915050565b5f6040820190506113de5f8301856113a3565b6113eb60208301846113a3565b9392505050565b6113fb8161111b565b82525050565b5f6060820190506114145f8301866113a3565b61142160208301856113f2565b61142e60408301846113a3565b949350505050565b5f6040820190506114495f8301856113f2565b61145660208301846113a3565b9392505050565b5f8151905061146b816111af565b92915050565b5f6020828403121561148657611485611026565b5b5f6114938482850161145d565b91505092915050565b6114a5816111a6565b82525050565b5f6080820190506114be5f83018761149c565b6114cb60208301866113a3565b6114d860408301856113f2565b6114e560608301846113a3565b95945050505050565b5f81519050919050565b5f82825260208201905092915050565b8281835e5f83830152505050565b5f601f19601f8301169050919050565b5f611530826114ee565b61153a81856114f8565b935061154a818560208601611508565b61155381611516565b840191505092915050565b5f6060820190506115715f8301866113a3565b61157e60208301856113f2565b81810360408301526115908184611526565b9050949350505050565b5f6060820190506115ad5f83018661149c565b6115ba60208301856113f2565b6115c760408301846113a3565b949350505050565b5f819050919050565b7f4e487b71000000000000000000000000000000000000000000000000000000005f52601160045260245ffd5b5f61160f826115cf565b915061161a836115cf565b925082820390508181125f8412168282135f85121516171561163f5761163e6115d8565b5b92915050565b5f81905092915050565b50565b5f61165d5f83611645565b91506116688261164f565b5f82019050919050565b5f61167c82611652565b9150819050919050565b5f815190506116948161112c565b92915050565b5f602082840312156116af576116ae611026565b5b5f6116bc84828501611686565b91505092915050565b5f6020820190506116d85f83018461149c565b92915050565b5f8115159050919050565b6116f2816116de565b81146116fc575f5ffd5b50565b5f8151905061170d816116e9565b92915050565b5f6020828403121561172857611727611026565b5b5f611735848285016116ff565b91505092915050565b7f45544820416d6f756e74203e2042616c616e63652c2043616e27742072756e205f8201527f6172626974726167650000000000000000000000000000000000000000000000602082015250565b5f6117986029836112c6565b91506117a38261173e565b604082019050919050565b5f6020820190508181035f8301526117c58161178c565b9050919050565b5f6020820190506117df5f8301846113f2565b92915050565b7f544f4b454e2042616c616e6365206973207a65726f2061667465722073656c6c5f8201527f696e672045544800000000000000000000000000000000000000000000000000602082015250565b5f61183f6027836112c6565b915061184a826117e5565b604082019050919050565b5f6020820190508181035f83015261186c81611833565b9050919050565b5f61187d82611088565b9050919050565b61188d81611873565b82525050565b5f6040820190506118a65f830185611884565b6118b360208301846113a3565b9392505050565b5f81519050919050565b5f6118ce826118ba565b6118d881856112c6565b93506118e8818560208601611508565b6118f181611516565b840191505092915050565b5f6040820190508181035f83015261191481856118c4565b905061192360208301846113a3565b9392505050565b7f4e487b71000000000000000000000000000000000000000000000000000000005f52605160045260245ffdfea2646970667358221220bba0c9c0f5ff75b9784f827ac315a310e9cc90da1ccd8f2da4ce9e40c832024d64736f6c634300081c0033","linkReferences":{}},"methodIdentifiers":{"initFlashLoan(uint256)":"3584ddfa","messenger()":"3cb747bf","recieveEthForArbitrage()":"f4c4c951","recieveEthForArbitrageDestinationChain(bytes32,uint256,address,uint256)":"9406f8fd","recieveEthForArbitrageSourceChain(uint256,address,uint256)":"533cd2e8","recieveEthOnSourceChainFromDestinationChain(bytes32,address,uint256)":"a2d9133d","token()":"fc0c546a"},"id":37}