{"abi":[{"type":"constructor","inputs":[{"name":"_uniswapDummyContractAddress","type":"address","internalType":"address"},{"name":"_flashLoanVaultAddress","type":"address","internalType":"address"}],"stateMutability":"nonpayable"},{"type":"receive","stateMutability":"payable"},{"type":"function","name":"initFlashLoan","inputs":[{"name":"destinationChain","type":"uint256","internalType":"uint256"}],"outputs":[],"stateMutability":"nonpayable"},{"type":"function","name":"messenger","inputs":[],"outputs":[{"name":"","type":"address","internalType":"contract IL2ToL2CrossDomainMessenger"}],"stateMutability":"view"},{"type":"function","name":"recieveEthForArbitrage","inputs":[],"outputs":[],"stateMutability":"payable"},{"type":"function","name":"recieveEthForArbitrageDestinationChain","inputs":[{"name":"sendEthMsgHash","type":"bytes32","internalType":"bytes32"},{"name":"sourceChain","type":"uint256","internalType":"uint256"},{"name":"caller","type":"address","internalType":"address"},{"name":"loanAmount","type":"uint256","internalType":"uint256"}],"outputs":[],"stateMutability":"nonpayable"},{"type":"function","name":"recieveEthForArbitrageSourceChain","inputs":[{"name":"destinationChain","type":"uint256","internalType":"uint256"},{"name":"caller","type":"address","internalType":"address"},{"name":"laonAmount","type":"uint256","internalType":"uint256"}],"outputs":[],"stateMutability":"payable"},{"type":"function","name":"recieveEthOnSourceChainFromDestinationChain","inputs":[{"name":"sendEthMsgHash","type":"bytes32","internalType":"bytes32"},{"name":"caller","type":"address","internalType":"address"},{"name":"loanAmount","type":"uint256","internalType":"uint256"}],"outputs":[],"stateMutability":"nonpayable"},{"type":"function","name":"token","inputs":[],"outputs":[{"name":"","type":"address","internalType":"contract TestUSDToken"}],"stateMutability":"view"},{"type":"event","name":"FlashLoanRecieved","inputs":[],"anonymous":false},{"type":"error","name":"CallerNotL2toL2CrossDomainMessenger","inputs":[]},{"type":"error","name":"InvalidCrossDomainSender","inputs":[]},{"type":"error","name":"RequiredMessageNotSuccessful","inputs":[{"name":"msgHash","type":"bytes32","internalType":"bytes32"}]}],"bytecode":{"object":"0x608060405273420000000000000000000000000000000000002460035f6101000a81548173ffffffffffffffffffffffffffffffffffffffff021916908373ffffffffffffffffffffffffffffffffffffffff16021790555060035f9054906101000a900473ffffffffffffffffffffffffffffffffffffffff1660045f6101000a81548173ffffffffffffffffffffffffffffffffffffffff021916908373ffffffffffffffffffffffffffffffffffffffff1602179055503480156100c4575f5ffd5b50604051611bb4380380611bb483398181016040528101906100e69190610359565b8160015f6101000a81548173ffffffffffffffffffffffffffffffffffffffff021916908373ffffffffffffffffffffffffffffffffffffffff16021790555060015f9054906101000a900473ffffffffffffffffffffffffffffffffffffffff1660025f6101000a81548173ffffffffffffffffffffffffffffffffffffffff021916908373ffffffffffffffffffffffffffffffffffffffff16021790555060025f9054906101000a900473ffffffffffffffffffffffffffffffffffffffff1673ffffffffffffffffffffffffffffffffffffffff166321df0da76040518163ffffffff1660e01b8152600401602060405180830381865afa1580156101f1573d5f5f3e3d5ffd5b505050506040513d601f19601f8201168201806040525081019061021591906103d2565b5f5f6101000a81548173ffffffffffffffffffffffffffffffffffffffff021916908373ffffffffffffffffffffffffffffffffffffffff1602179055508060055f6101000a81548173ffffffffffffffffffffffffffffffffffffffff021916908373ffffffffffffffffffffffffffffffffffffffff16021790555060055f9054906101000a900473ffffffffffffffffffffffffffffffffffffffff1660065f6101000a81548173ffffffffffffffffffffffffffffffffffffffff021916908373ffffffffffffffffffffffffffffffffffffffff16021790555050506103fd565b5f5ffd5b5f73ffffffffffffffffffffffffffffffffffffffff82169050919050565b5f610328826102ff565b9050919050565b6103388161031e565b8114610342575f5ffd5b50565b5f815190506103538161032f565b92915050565b5f5f6040838503121561036f5761036e6102fb565b5b5f61037c85828601610345565b925050602061038d85828601610345565b9150509250929050565b5f6103a18261031e565b9050919050565b6103b181610397565b81146103bb575f5ffd5b50565b5f815190506103cc816103a8565b92915050565b5f602082840312156103e7576103e66102fb565b5b5f6103f4848285016103be565b91505092915050565b6117aa8061040a5f395ff3fe608060405260043610610073575f3560e01c80639406f8fd1161004d5780639406f8fd146100ec578063a2d9133d14610114578063f4c4c9511461013c578063fc0c546a146101465761007a565b80633584ddfa1461007e5780633cb747bf146100a6578063533cd2e8146100d05761007a565b3661007a57005b5f5ffd5b348015610089575f5ffd5b506100a4600480360381019061009f9190610ed0565b610170565b005b3480156100b1575f5ffd5b506100ba6102de565b6040516100c79190610f75565b60405180910390f35b6100ea60048036038101906100e59190610fc9565b6102f6565b005b3480156100f7575f5ffd5b50610112600480360381019061010d919061104c565b6104aa565b005b34801561011f575f5ffd5b5061013a600480360381019061013591906110b0565b610677565b005b61014461081f565b005b348015610151575f5ffd5b5061015a61082a565b6040516101679190611120565b60405180910390f35b4681036101b2576040517f08c379a00000000000000000000000000000000000000000000000000000000081526004016101a9906111b9565b60405180910390fd5b5f60065f9054906101000a900473ffffffffffffffffffffffffffffffffffffffff1673ffffffffffffffffffffffffffffffffffffffff1663a34d9b6e6040518163ffffffff1660e01b81526004016020604051808303815f875af115801561021e573d5f5f3e3d5ffd5b505050506040513d601f19601f8201168201806040525081019061024291906111eb565b90507f1d4e2b22119943a3cf406d7afb25890010b72d22f1ad23d697719233f56396e660405160405180910390a13073ffffffffffffffffffffffffffffffffffffffff1663533cd2e88333846040518463ffffffff1660e01b81526004016102ad93929190611234565b5f604051808303815f87803b1580156102c4575f5ffd5b505af11580156102d6573d5f5f3e3d5ffd5b505050505050565b73420000000000000000000000000000000000002381565b5f60045f9054906101000a900473ffffffffffffffffffffffffffffffffffffffff1673ffffffffffffffffffffffffffffffffffffffff166364a197f34730876040518463ffffffff1660e01b8152600401610354929190611269565b60206040518083038185885af1158015610370573d5f5f3e3d5ffd5b50505050506040513d601f19601f8201168201806040525081019061039591906112a4565b905073420000000000000000000000000000000000002373ffffffffffffffffffffffffffffffffffffffff16637056f41f8530639406f8fd60e01b854689896040516024016103e894939291906112de565b604051602081830303815290604052907bffffffffffffffffffffffffffffffffffffffffffffffffffffffff19166020820180517bffffffffffffffffffffffffffffffffffffffffffffffffffffffff83818316178352505050506040518463ffffffff1660e01b815260040161046393929190611391565b6020604051808303815f875af115801561047f573d5f5f3e3d5ffd5b505050506040513d601f19601f820116820180604052508101906104a391906112a4565b5050505050565b6104b261084e565b6104bb8461093d565b6104c447610a0d565b5f60045f9054906101000a900473ffffffffffffffffffffffffffffffffffffffff1673ffffffffffffffffffffffffffffffffffffffff166364a197f34730876040518463ffffffff1660e01b8152600401610522929190611269565b60206040518083038185885af115801561053e573d5f5f3e3d5ffd5b50505050506040513d601f19601f8201168201806040525081019061056391906112a4565b905073420000000000000000000000000000000000002373ffffffffffffffffffffffffffffffffffffffff16637056f41f853063a2d9133d60e01b8588886040516024016105b4939291906113cd565b604051602081830303815290604052907bffffffffffffffffffffffffffffffffffffffffffffffffffffffff19166020820180517bffffffffffffffffffffffffffffffffffffffffffffffffffffffff83818316178352505050506040518463ffffffff1660e01b815260040161062f93929190611391565b6020604051808303815f875af115801561064b573d5f5f3e3d5ffd5b505050506040513d601f19601f8201168201806040525081019061066f91906112a4565b505050505050565b61067f61084e565b6106888361093d565b5f8147610695919061142f565b90505f8111156107915760055f9054906101000a900473ffffffffffffffffffffffffffffffffffffffff1673ffffffffffffffffffffffffffffffffffffffff16826040516106e49061148f565b5f6040518083038185875af1925050503d805f811461071e576040519150601f19603f3d011682016040523d82523d5f602084013e610723565b606091505b5050508273ffffffffffffffffffffffffffffffffffffffff164760405161074a9061148f565b5f6040518083038185875af1925050503d805f8114610784576040519150601f19603f3d011682016040523d82523d5f602084013e610789565b606091505b505050610819565b60055f9054906101000a900473ffffffffffffffffffffffffffffffffffffffff1673ffffffffffffffffffffffffffffffffffffffff16476040516107d69061148f565b5f6040518083038185875af1925050503d805f8114610810576040519150601f19603f3d011682016040523d82523d5f602084013e610815565b606091505b5050505b50505050565b61082834610a0d565b565b5f5f9054906101000a900473ffffffffffffffffffffffffffffffffffffffff1681565b610856610d34565b3073ffffffffffffffffffffffffffffffffffffffff1673420000000000000000000000000000000000002373ffffffffffffffffffffffffffffffffffffffff166338ffde186040518163ffffffff1660e01b8152600401602060405180830381865afa1580156108ca573d5f5f3e3d5ffd5b505050506040513d601f19601f820116820180604052508101906108ee91906114b7565b73ffffffffffffffffffffffffffffffffffffffff161461093b576040517fbc22e2aa00000000000000000000000000000000000000000000000000000000815260040160405180910390fd5b565b73420000000000000000000000000000000000002373ffffffffffffffffffffffffffffffffffffffff1663b1b1b209826040518263ffffffff1660e01b815260040161098a91906114e2565b602060405180830381865afa1580156109a5573d5f5f3e3d5ffd5b505050506040513d601f19601f820116820180604052508101906109c99190611530565b610a0a57806040517f5e38ca86000000000000000000000000000000000000000000000000000000008152600401610a0191906114e2565b60405180910390fd5b50565b47811115610a50576040517f08c379a0000000000000000000000000000000000000000000000000000000008152600401610a47906115cb565b60405180910390fd5b60025f9054906101000a900473ffffffffffffffffffffffffffffffffffffffff1673ffffffffffffffffffffffffffffffffffffffff1663c0fd732a826040518263ffffffff1660e01b81526004015f604051808303818588803b158015610ab7575f5ffd5b505af1158015610ac9573d5f5f3e3d5ffd5b50505050505f5f5f9054906101000a900473ffffffffffffffffffffffffffffffffffffffff1673ffffffffffffffffffffffffffffffffffffffff166370a08231306040518263ffffffff1660e01b8152600401610b2891906115e9565b602060405180830381865afa158015610b43573d5f5f3e3d5ffd5b505050506040513d601f19601f82011682018060405250810190610b6791906111eb565b90505f8111610bab576040517f08c379a0000000000000000000000000000000000000000000000000000000008152600401610ba290611672565b60405180910390fd5b610bea6040518060400160405280600f81526020017f746f6b656e2062616c616e63653a20000000000000000000000000000000000081525082610daf565b5f5f9054906101000a900473ffffffffffffffffffffffffffffffffffffffff1673ffffffffffffffffffffffffffffffffffffffff1663095ea7b360015f9054906101000a900473ffffffffffffffffffffffffffffffffffffffff16836040518363ffffffff1660e01b8152600401610c66929190611269565b6020604051808303815f875af1158015610c82573d5f5f3e3d5ffd5b505050506040513d601f19601f82011682018060405250810190610ca69190611530565b5060025f9054906101000a900473ffffffffffffffffffffffffffffffffffffffff1673ffffffffffffffffffffffffffffffffffffffff1663a03475fe30836040518363ffffffff1660e01b8152600401610d039291906116b0565b5f604051808303815f87803b158015610d1a575f5ffd5b505af1158015610d2c573d5f5f3e3d5ffd5b505050505050565b73420000000000000000000000000000000000002373ffffffffffffffffffffffffffffffffffffffff163373ffffffffffffffffffffffffffffffffffffffff1614610dad576040517f1a861d2c00000000000000000000000000000000000000000000000000000000815260040160405180910390fd5b565b610e478282604051602401610dc5929190611719565b6040516020818303038152906040527fb60e72cc000000000000000000000000000000000000000000000000000000007bffffffffffffffffffffffffffffffffffffffffffffffffffffffff19166020820180517bffffffffffffffffffffffffffffffffffffffffffffffffffffffff8381831617835250505050610e4b565b5050565b610e6281610e5a610e65610e84565b63ffffffff16565b50565b5f6a636f6e736f6c652e6c6f6790505f5f835160208501845afa505050565b610e8f819050919050565b610e97611747565b565b5f5ffd5b5f819050919050565b610eaf81610e9d565b8114610eb9575f5ffd5b50565b5f81359050610eca81610ea6565b92915050565b5f60208284031215610ee557610ee4610e99565b5b5f610ef284828501610ebc565b91505092915050565b5f73ffffffffffffffffffffffffffffffffffffffff82169050919050565b5f819050919050565b5f610f3d610f38610f3384610efb565b610f1a565b610efb565b9050919050565b5f610f4e82610f23565b9050919050565b5f610f5f82610f44565b9050919050565b610f6f81610f55565b82525050565b5f602082019050610f885f830184610f66565b92915050565b5f610f9882610efb565b9050919050565b610fa881610f8e565b8114610fb2575f5ffd5b50565b5f81359050610fc381610f9f565b92915050565b5f5f5f60608486031215610fe057610fdf610e99565b5b5f610fed86828701610ebc565b9350506020610ffe86828701610fb5565b925050604061100f86828701610ebc565b9150509250925092565b5f819050919050565b61102b81611019565b8114611035575f5ffd5b50565b5f8135905061104681611022565b92915050565b5f5f5f5f6080858703121561106457611063610e99565b5b5f61107187828801611038565b945050602061108287828801610ebc565b935050604061109387828801610fb5565b92505060606110a487828801610ebc565b91505092959194509250565b5f5f5f606084860312156110c7576110c6610e99565b5b5f6110d486828701611038565b93505060206110e586828701610fb5565b92505060406110f686828701610ebc565b9150509250925092565b5f61110a82610f44565b9050919050565b61111a81611100565b82525050565b5f6020820190506111335f830184611111565b92915050565b5f82825260208201905092915050565b7f44657374696e6174696f6e20436861696e2043616e6e6f742042652053616d655f8201527f20417320536f7572636520436861696e00000000000000000000000000000000602082015250565b5f6111a3603083611139565b91506111ae82611149565b604082019050919050565b5f6020820190508181035f8301526111d081611197565b9050919050565b5f815190506111e581610ea6565b92915050565b5f60208284031215611200576111ff610e99565b5b5f61120d848285016111d7565b91505092915050565b61121f81610e9d565b82525050565b61122e81610f8e565b82525050565b5f6060820190506112475f830186611216565b6112546020830185611225565b6112616040830184611216565b949350505050565b5f60408201905061127c5f830185611225565b6112896020830184611216565b9392505050565b5f8151905061129e81611022565b92915050565b5f602082840312156112b9576112b8610e99565b5b5f6112c684828501611290565b91505092915050565b6112d881611019565b82525050565b5f6080820190506112f15f8301876112cf565b6112fe6020830186611216565b61130b6040830185611225565b6113186060830184611216565b95945050505050565b5f81519050919050565b5f82825260208201905092915050565b8281835e5f83830152505050565b5f601f19601f8301169050919050565b5f61136382611321565b61136d818561132b565b935061137d81856020860161133b565b61138681611349565b840191505092915050565b5f6060820190506113a45f830186611216565b6113b16020830185611225565b81810360408301526113c38184611359565b9050949350505050565b5f6060820190506113e05f8301866112cf565b6113ed6020830185611225565b6113fa6040830184611216565b949350505050565b7f4e487b71000000000000000000000000000000000000000000000000000000005f52601160045260245ffd5b5f61143982610e9d565b915061144483610e9d565b925082820390508181111561145c5761145b611402565b5b92915050565b5f81905092915050565b50565b5f61147a5f83611462565b91506114858261146c565b5f82019050919050565b5f6114998261146f565b9150819050919050565b5f815190506114b181610f9f565b92915050565b5f602082840312156114cc576114cb610e99565b5b5f6114d9848285016114a3565b91505092915050565b5f6020820190506114f55f8301846112cf565b92915050565b5f8115159050919050565b61150f816114fb565b8114611519575f5ffd5b50565b5f8151905061152a81611506565b92915050565b5f6020828403121561154557611544610e99565b5b5f6115528482850161151c565b91505092915050565b7f45544820416d6f756e74203e2042616c616e63652c2043616e27742072756e205f8201527f6172626974726167650000000000000000000000000000000000000000000000602082015250565b5f6115b5602983611139565b91506115c08261155b565b604082019050919050565b5f6020820190508181035f8301526115e2816115a9565b9050919050565b5f6020820190506115fc5f830184611225565b92915050565b7f544f4b454e2042616c616e6365206973207a65726f2061667465722073656c6c5f8201527f696e672045544800000000000000000000000000000000000000000000000000602082015250565b5f61165c602783611139565b915061166782611602565b604082019050919050565b5f6020820190508181035f83015261168981611650565b9050919050565b5f61169a82610efb565b9050919050565b6116aa81611690565b82525050565b5f6040820190506116c35f8301856116a1565b6116d06020830184611216565b9392505050565b5f81519050919050565b5f6116eb826116d7565b6116f58185611139565b935061170581856020860161133b565b61170e81611349565b840191505092915050565b5f6040820190508181035f83015261173181856116e1565b90506117406020830184611216565b9392505050565b7f4e487b71000000000000000000000000000000000000000000000000000000005f52605160045260245ffdfea264697066735822122085315e6d97f8b1b4396584d6dd75452fc07d0c0fc8c025b72ae8b8262ea49d8c64736f6c634300081c0033","linkReferences":{}},"methodIdentifiers":{"initFlashLoan(uint256)":"3584ddfa","messenger()":"3cb747bf","recieveEthForArbitrage()":"f4c4c951","recieveEthForArbitrageDestinationChain(bytes32,uint256,address,uint256)":"9406f8fd","recieveEthForArbitrageSourceChain(uint256,address,uint256)":"533cd2e8","recieveEthOnSourceChainFromDestinationChain(bytes32,address,uint256)":"a2d9133d","token()":"fc0c546a"},"id":37}